:100000000C9462000C948A000C948A000C948A0070
:100010000C948A000C948A000C948A000C948A0038
:100020000C948A000C948A000C948A000C948A0028
:100030000C948A000C948A000C948A000C948A0018
:100040000C94A8030C948A000C948A000C948A00E7
:100050000C948A000C948A000C948A000C948A00F8
:100060000C94F2030C948A00000000002400270086
:100070002A000000000023002600290000000000E4
:10008000250028002B0004040404040404040202D4
:100090000202020203030303030301020408102007
:1000A0004080010204081020010204081020000012
:1000B0000008000201000003040700000000000027
:1000C00000000D0511241FBECFEFD8E0DEBFCDBF6D
:1000D00011E0A0E0B1E0E2ECFCE002C005900D927E
:1000E000AA34B107D9F722E0AAE4B1E001C01D9219
:1000F000A030B207E1F710E0C2E6D0E004C02197DB
:10010000FE010E945906C136D107C9F70E942D058C
:100110000C945F060C940000833081F028F4813049
:1001200099F08230A9F008958730A9F08830C9F09D
:100130008430B1F4809180008F7D03C08091800075
:100140008F7780938000089584B58F7784BD08955C
:1001500084B58F7DFBCF8091B0008F778093B00006
:1001600008958091B0008F7DF9CF1F93CF93DF93D7
:10017000282F30E0F901E255FF4F8491F901E6564E
:10018000FF4FD491F901EA57FF4FC491CC23A9F056
:10019000162F81110E948C00EC2FF0E0EE0FFF1F54
:1001A000E458FF4FA591B4918FB7F894EC911111D9
:1001B00008C0D095DE23DC938FBFDF91CF911F91D4
:1001C0000895DE2BF8CF3FB7F8948091E401909129
:1001D000E501A091E601B091E70126B5A89B05C015
:1001E0002F3F19F00196A11DB11D3FBFBA2FA92FB6
:1001F000982F8827BC01CD01620F711D811D911DB3
:1002000042E0660F771F881F991F4A95D1F708951E
:100210008F929F92AF92BF92CF92DF92EF92FF9216
:100220004B015C010E94E3006B017C010E94E30032
:100230006C197D098E099F09683E734081059105FF
:10024000A8F321E0821A9108A108B10888EEC80E2F
:1002500083E0D81EE11CF11C81149104A104B104B7
:1002600029F7FF90EF90DF90CF90BF90AF909F90D5
:100270008F900895AF92BF92CF92DF92EF92FF924C
:100280000F931F93CF93DF936C017B018B01040FBE
:10029000151FEB015E01AE18BF08C017D10759F05A
:1002A0006991D601ED91FC910190F081E02DC6019C
:1002B0000995892B79F7C501DF91CF911F910F9196
:1002C000FF90EF90DF90CF90BF90AF90089508958A
:1002D0001F93CF93DF93C1E0C0934B01882399F123
:1002E000D091B8001091BA008091BC008A7B8093B5
:1002F000BC0060E082E10E94B50060E083E10E9402
:10030000B5001092B501C093B40110928F0161E065
:1003100082E10E94B50061E083E10E94B500809116
:10032000B9008E7F8093B9008091B9008D7F809352
:10033000B90088E48093B80085E48093BC001093F2
:10034000BA00D093B800DF91CF911F91089520910A
:100350006C01260F3327331F21323105ECF4209135
:10036000B501FC0190E080E0243069F082E008955E
:10037000A0916C012191AC01445B5E4FA40FB52F9D
:10038000B11D2C930196861798F380916C01680F2C
:1003900060936C0180E0089581E0089508958FEFE7
:1003A0009FEF08958FEF9FEF089580914A0190E0AD
:1003B0009195819591090895CF92DF92EF92FF92E6
:1003C0000F931F93CF93DF937C01CB018A01209180
:1003D000BB01222389F0EB016B01C40ED51ECC15A5
:1003E000DD0569F06991D701ED91FC910190F081F3
:1003F000E02DC7010995F3CF642F0E94A701C80122
:10040000DF91CF911F910F91FF90EF90DF90CF90F0
:100410000895CF93DF931F92CDB7DEB76983209104
:10042000BB012223F9F02091DE01203258F021E0B7
:1004300030E0FC013383228390E080E00F90DF9175
:10044000CF9108958091BC01E82FF0E0E354FE4F76
:10045000998190838F5F8093BC018093DE0181E05E
:1004600090E0ECCF61E0CE0101960E94A701F7CFAA
:10047000CF92DF92EF92FF920F931F93CF93DF9370
:10048000FC01C48121E02093BB01C093DD011092E7
:10049000BC011092DE018385682B88EE91E00E94FA
:1004A0000902D091DE01D13208F092C00E94E3002F
:1004B0006B017C018091B501811165C082E0809360
:1004C000B50181E08093B4018FEF8093B301109266
:1004D000B201D093B101ADEBB1E0E1E9F1E080E030
:1004E000D81385C01092900180919001CC0FC82B39
:1004F000C093900180918F01813009F07CC01092EF
:100500008F010E94E3006B017C0180919001809338
:10051000BB008091B7019091B801A091B901B09151
:10052000BA01892B8A2B8B2B99F00E94E300009152
:10053000B7011091B8012091B9013091BA016C193D
:100540007D098E099F090617170728073907E0F16B
:100550008091BC0083FDD9CF85EC8093BC000E94C4
:10056000E3006B017C018091B501823009F445C044
:100570008091B3018F3F61F18091B301803241F1ED
:100580008091B30125C08091B7019091B801A091ED
:10059000B901B091BA01892B8A2B8B2B09F48ACF30
:1005A0000E94E3000091B7011091B8012091B901B8
:1005B0003091BA016C197D098E099F09061717073A
:1005C0002807390708F076CF8091B6010E946801AC
:1005D0001092BC011092DE011092BB01DF91CF910D
:1005E0001F910F91FF90EF90DF90CF9008959D9114
:1005F00091938F5F75CF85EEB0CF8091B7019091C9
:10060000B801A091B901B091BA01892B8A2B8B2B2B
:1006100009F4A9CF0E94E3000091B7011091B8013D
:100620002091B9013091BA016C197D098E099F0999
:10063000061717072807390708F095CFC5CF90E0B0
:1006400080E00895FC0101900020E9F73197AF01A7
:10065000481B590BBC0184EF91E00C943A010F93B5
:100660001F93CF938C01C62F0E9438026C2F6460B9
:10067000C8010E9438026C2F6B7FC8010E943802AB
:1006800083EC90E00197F1F7CF911F910F910895BE
:100690000F931F93CF93DF938C01D62FC42F607FCE
:1006A000642B0E942F0380E1D89FB00111246C2B92
:1006B000C801DF91CF911F910F910C942F0340E05F
:1006C00061E084EF91E00E9448038BE39FE1019792
:1006D000F1F7089541E00E94480381E090E0089519
:1006E00085ED8093BC008091B7019091B801A091F5
:1006F000B901B091BA010796A11DB11D23E0B695CD
:10070000A795979587952A95D1F72091BC0024FD50
:1007100003C01092B50108954091B7015091B801FE
:100720006091B9017091BA01452B462B472B69F3B3
:100730000097A105B10541F02AE22A95F1F700C022
:100740000197A109B109E1CF8091B6010C9468012C
:100750001F920F920FB60F9211242F933F938F93F6
:100760009F93AF93BF938091E0019091E101A0919D
:10077000E201B091E3013091DF0123E0230F2D3737
:1007800058F50196A11DB11D2093DF018093E00172
:100790009093E101A093E201B093E3018091E40121
:1007A0009091E501A091E601B091E7010196A11DAC
:1007B000B11D8093E4019093E501A093E601B0930D
:1007C000E701BF91AF919F918F913F912F910F9032
:1007D0000FBE0F901F90189526E8230F0296A11DBB
:1007E000B11DD2CF1F920F920FB60F9211242F93EB
:1007F0003F934F935F936F937F938F939F93AF93A9
:10080000BF93EF93FF938091B900887F803609F4FE
:100810004AC0F0F5883209F4A5C018F5803109F412
:1008200099C0B8F4882309F4F5C0883009F492C05F
:10083000FF91EF91BF91AF919F918F917F916F91B8
:100840005F914F913F912F910F900FBE0F901F908E
:100850001895883109F486C0803251F78093B3012E
:1008600014C0803409F49BC040F48033B9F388335A
:10087000F9F68093B30185ECAEC0803509F483C0EE
:10088000883509F494C0883499F60E947003D0CF5B
:10089000883909F48AC038F5883729F050F4883649
:1008A00011F0803729F683E08093B50110928E0114
:1008B00055C0883809F479C0803919F0803809F0BA
:1008C000B7CF80918E01803208F06FC0E0918E0129
:1008D00081E08E0F80938E018091BB00F0E0E259A1
:1008E000FE4F80833BC0803B39F0D0F4803A09F45E
:1008F00077C0883A09F09CCF84E08093B5011092CC
:100900006D0110926C01F0E0E0E0099580916C01BE
:1009100081110FC081E080936C0110924C0109C0DD
:10092000803C09F4A8CF883C09F4A5CF883B09F0A6
:100930007FCFE0916D0181E08E0F80936D01F0E03B
:10094000E45BFE4F80818093BB0090916D018091AC
:100950006C0129C0809190018093BB0085EC80934D
:10096000BC0066CF9091B2018091B101981758F503
:10097000E091B20181E08E0F8093B201F0E0EF567A
:10098000FE4F8081E9CFE091B20181E08E0F80932C
:10099000B2018091BB00F0E0EF56FE4F8083909152
:1009A000B2018091B1019817C8F285E8D8CFE091E3
:1009B000B20181E08E0F8093B2018091BB00F0E024
:1009C000EF56FE4F80838091B40181115ECF81E0AC
:1009D00080938F0184EA8093BC001092B50128CFE8
:1009E00085EC8093BC001092B50180918E0180321D
:1009F00030F4E0918E01F0E0E259FE4F10826091F8
:100A00008E0170E08EE691E0F0E0E0E00995109252
:100A10008E010ECF1092B30138CFE8EEF1E01382D1
:100A2000128288EE93E0A0E0B0E084839583A683F1
:100A3000B78384E091E091838083E4EFF1E0138257
:100A4000128286E191E09183808387E2848380E152
:100A5000818782E0828713860895789484B58260C6
:100A600084BD84B5816084BD85B5826085BD85B552
:100A7000816085BD80916E00816080936E001092D0
:100A8000810080918100826080938100809181004B
:100A900081608093810080918000816080938000DC
:100AA0008091B10084608093B1008091B00081603A
:100AB0008093B00080917A00846080937A00809166
:100AC0007A00826080937A0080917A0081608093BE
:100AD0007A0080917A00806880937A001092C10039
:100AE000ECE9F0E02491E8E8F0E08491882399F0C3
:100AF00090E0880F991FFC01E859FF4FA591B49130
:100B0000FC01E458FF4F859194918FB7F894EC91D4
:100B1000E22BEC938FBFCDE9D0E0FE01249109E8F0
:100B200010E0F80184918823C9F090E0880F991FA4
:100B3000FC01E859FF4FA591B491FC01E458FF4F27
:100B4000459154913FB7F8949C91822F80959823BA
:100B50009C93FA019081892380833FBF8091F901A2
:100B600088608093F90180E18093FC0162E370E08A
:100B700080E090E00E9408016091FF0184EF91E025
:100B80000E94380268EE73E080E090E00E94080165
:100B900060E384EF91E00E942F039BE4E92E96E44A
:100BA000F92EC7010197F1F760E384EF91E00E940D
:100BB0002F03C7010197F1F760E384EF91E00E94F2
:100BC0002F0383E592E00197F1F760E284EF91E073
:100BD0000E942F036091F901606240E084EF91E090
:100BE0000E94480384E08093FA0140E06CE084EFC7
:100BF00091E00E9448030E945F0382E08093FB0122
:100C000040E066E084EF91E00E94480340E062E04B
:100C100084EF91E00E9448038BE39FE10197F1F795
:100C200040E060E884EF91E00E9448038EE191E0AB
:100C30000E94220321EBE22E20E0F22E30E0C32EB0
:100C400030E0D32EF7018491FE01A490F801B49016
:100C5000B11020C061E082E00E94B5000E945F03F5
:100C60008DE291E00E94220360E177E280E090E073
:100C70000E94080160E082E00E94B5000E945F03CC
:100C80008AE391E00E942203C114D104D9F20E94A8
:100C90000000D8CF81110E948C00EB2DF0E0EE0F08
:100CA000FF1FEE58FF4FA591B4918C91A82291F2AD
:100CB000EBCFEE0FFF1F0590F491E02D0994F8940F
:020CC000FFCF64
:100CC200000000000902DC011F03CE01D501D201A0
:100CD200CF01000000006A033A011F03670141507F
:100CE20045525445204F20424F54414F004D4F54DE
:100CF2004F52204C494741444F004D4F544F5220D0
:0A0D02004445534C494741444F005B
:00000001FF
